:040000000DEF09F007
:0D08000000414443203D2025690A0D000001
:10080E0020C036F021C037F022C038F023C039F0B6
:10081E0024C03AF025C03BF026C03CF027C03DF086
:10082E003DBE1CEF04F01FEF04F0010E20EF04F0AC
:10083E00000E406E4050D8B427EF04F029EF04F0BC
:10084E0039EF04F03D1E3C1E3B1E3A1E391E381E6B
:10085E00371E366C000E3722382239223A223B22BE
:10086E003C223D22000163BF47EF04F0635106E1D5
:10087E006205D8B045EF04F047EF04F04DEF04F0F9
:10088E00000E336E010E326E51EF04F062C032F084
:10089E0063C033F060C034F061C035F04050D8B45E
:1008AE005BEF04F05DEF04F074EF04F03406D8A0B3
:1008BE0035064050D8A466EF04F068EF04F06EEFF2
:1008CE0004F0000E316E2B0E306E72EF04F0000E3F
:1008DE00316E2D0E306E30C040F0000E3F6E1F0E8A
:1008EE003E6E000E866FF8EF04F03E06D8A03F066F
:1008FE00670E3E24D96E000E3F20DA6E36C001F030
:10090E0037C002F038C003F039C004F03AC005F029
:10091E003BC006F03CC007F03DC008F00A0E096E61
:10092E00000E0A6E000E0B6E000E0C6E000E0D6E9B
:10093E00000E0E6E000E0F6E000E106E09EC06F01D
:10094E0001C028F002C029F003C02AF004C02BF029
:10095E0005C02CF006C02DF007C02EF008C02FF0F9
:10096E0028C013F029C014F073EC08F01350300FA8
:10097E00DF6E3206D8A033063406D8A0350636C050
:10098E0001F037C002F038C003F039C004F03AC0AD
:10099E0005F03BC006F03CC007F03DC008F00A0E63
:1009AE00096E000E0A6E000E0B6E000E0C6E000E1F
:1009BE000D6E000E0E6E000E0F6E000E106E45ECDC
:1009CE0005F001C036F002C037F003C038F004C0A5
:1009DE0039F005C03AF006C03BF007C03CF008C045
:1009EE003DF03FBE03EF05F03F5008E13E04D8A0B6
:1009FE0003EF05F005EF05F021EF05F03650371047
:100A0E00381039103A103B103C103D10D8A412EF9C
:100A1E0005F014EF05F07CEF04F033BE21EF05F086
:100A2E00335006E13204D8B01FEF05F021EF05F088
:100A3E007CEF04F04050D8B427EF05F029EF05F015
:100A4E0034EF05F03E06D8A03F06670E3E24D96E61
:100A5E00000E3F20DA6E40C0DFFF1EC013F01FC035
:100A6E0014F0670E3E24156E000E3F20166E34C035
:100A7E0017F035C018F0EDEC07F01200000E126EF4
:100A8E0010BE4EEF05F04CEF05F060EF05F0101EB6
:100A9E000F1E0E1E0D1E0C1E0B1E0A1E096C000EC6
:100AAE000A220B220C220D220E220F221022010EE0
:100ABE00126E08BE67EF05F065EF05F079EF05F0F1
:100ACE00081E071E061E051E041E031E021E016CB6
:100ADE00000E0222032204220522062207220822E9
:100AEE00010E121A20EE13F0070EDE6AE806FDE282
:100AFE0009500A100B100C100D100E100F101010C4
:100B0E00D8B48CEF05F08EEF05F0E0EF05F0010E96
:100B1E00116E9CEF05F0D89009360A360B360C365E
:100B2E000D360E360F361036112A10AEA1EF05F027
:100B3E00A3EF05F092EF05F0D89013361436153664
:100B4E0016361736183619361A360950015C0A5001
:100B5E0002580B5003580C5004580D5005580E50A7
:100B6E0006580F50075810500858D8A0C1EF05F07E
:100B7E00C3EF05F0D4EF05F00950015E0A50025A9A
:100B8E000B50035A0C50045A0D50055A0E50065A6B
:100B9E000F50075A1050085A1380D89010320F3247
:100BAE000E320D320C320B320A320932112EA3EFF5
:100BBE0005F01250D8B4E6EF05F0E8EF05F0F8EFC7
:100BCE0005F01A1E191E181E171E161E151E141EAF
:100BDE00136C000E14221522162217221822192227
:100BEE001A2213C001F014C002F015C003F016C093
:100BFE0004F017C005F018C006F019C007F01AC0AF
:100C0E0008F01200000E126E08BE12EF06F010EF82
:100C1E0006F024EF06F0081E071E061E051E041E13
:100C2E00031E021E016C000E022203220422052264
:100C3E00062207220822010E126E10BE2BEF06F0BE
:100C4E0029EF06F03BEF06F0101E0F1E0E1E0D1EB6
:100C5E000C1E0B1E0A1E096C000E0A220B220C2201
:100C6E000D220E220F22102209500A100B100C100A
:100C7E000D100E100F101010D8B448EF06F04AEFFA
:100C8E0006F092EF06F0010E116E58EF06F0D890B6
:100C9E0009360A360B360C360D360E360F36103632
:100CAE00112A10AE5DEF06F05FEF06F04EEF06F084
:100CBE000950015C0A5002580B5003580C5004584E
:100CCE000D5005580E5006580F5007581050085822
:100CDE00D8A074EF06F076EF06F086EF06F0095016
:100CEE00015E0A50025A0B50035A0C50045A0D5012
:100CFE00055A0E50065A0F50075A1050085AD890DF
:100D0E0010320F320E320D320C320B320A320932E1
:100D1E00112E5FEF06F01250D8B498EF06F09AEF4E
:100D2E0006F0AAEF06F0081E071E061E051E041E7C
:100D3E00031E021E016C000E022203220422052253
:100D4E0006220722082201C001F002C002F003C0F1
:100D5E0003F004C004F005C005F006C006F007C09D
:100D6E0007F008C008F0120043C0D9FF44C0DAFFF4
:100D7E00DECFF6FFDDCFF7FF0800F550250AD8A429
:100D8E00CBEF06F0CDEF06F04DEF07F043C0D9FFE5
:100D9E0044C0DAFFDE2A000EDD22000E0001616F74
:100DAE00000E606F60C066F06269636943C0D9FF70
:100DBE0044C0DAFFDECF51F0DDCF52F051C0F6FF66
:100DCE0052C0F7FF0800F550640AD8B4F1EF06F0F0
:100DDE00F3EF06F001EF07F051C0F6FF52C0F7FF38
:100DEE000800F550690AD8A4FFEF06F001EF07F0EE
:100DFE0044EF07F045C0D9FF46C0DAFFDFCF47F01A
:100E0E00020EDE26DFCF48F0000EDD2247C0D9FFEE
:100E1E0048C0DAFFDECF49F0DDCF4AF0000E4ABE01
:100E2E00FF0E4B6E4C6E4D6E4E6E4F6E506E010E33
:100E3E005124476E000E5220486E43C0D9FF44C065
:100E4E00DAFF47C0DEFF48C0DDFF41C01EF042C0E2
:100E5E001FF049C020F04AC021F04BC022F04CC018
:100E6E0023F04DC024F04EC025F04FC026F050C0E8
:100E7E0027F007EC04F061EF07F043C0D9FF44C040
:100E8E00DAFFDE2A000EDD2261EF07F043C0D9FF44
:100E9E0044C0DAFFDECFF6FFDDCFF7FF0800F550D6
:100EAE00036E046A41C005F042C006F062EC07F022
:100EBE0044EF07F0120005500610D8B469EF07F0A2
:100ECE006BEF07F074EF07F005500610D8A472EF21
:100EDE0007F074EF07F079EF07F003504AEC09F0D2
:100EEE00ACEF07F020EE09F00550D9260650DA22B5
:100EFE00DE50DE10D8B486EF07F088EF07F0A3EFD0
:100F0E0007F020EE09F00550D9260650DA2210EE31
:100F1E0003F00550E1260650E222DE50E65CE65074
:100F2E00800A0B6EDE50800A0B58D8B0A1EF07F086
:100F3E00A3EF07F0ACEF07F020EE03F00550D92633
:100F4E000650DA22DE2A000EDD22120024EC09F011
:100F5E00000EB2EC08F001C091F002C092F0010E4A
:100F6E005B6E080E5C6E91C05DF092C05EF0E5ECBB
:100F7E0008F0060E0001906F130E8F6FAD0EE82E67
:100F8E00FED78F2FFCD7902FFAD700D0F9EC08F0B0
:100F9E000009D8B4D5EF07F0D7EF07F0AFEF07F0A1
:100FAE0089B8DCEF07F0DFEF07F0010EE0EF07F096
:100FBE00000EFF0A00018F6F8F3B89508F19EF0BC8
:100FCE008F19896EAFEF07F000EF00F018BEF2EF49
:100FDE0007F0F4EF07F0FAEF07F017C01CF018C097
:100FEE001DF0FEEF07F0000E1D6E000E1C6E000EC3
:100FFE001B6E000E1A6E10EF08F0000E046E200E1F
:10100E00036E13C005F014C006F062EC07F01A4A26
:10101E001B2A1C501A5C1B50800A196E1D50800A28
:10102E001958D8A01DEF08F01FEF08F004EF08F0D4
:10103E0015C00CF016C00DF013C00EF014C00FF05A
:10104E0051EC08F0120055C059F056C05AF03EEF60
:10105E0008F053C041F054C042F0590E436E000EDA
:10106E00446E57C045F058C046F0BBEC06F059C070
:10107E00F6FF5AC0F7FF0800F5500009D8A44AEF52
:10108E0008F04CEF08F030EF08F0000E546E000E32
:10109E00536E1200000E126E000E116E62EF08F00B
:1010AE0010C003F0046A0EC005F00FC006F062EC2B
:1010BE0007F0114A122A11500C24D96E12500D202D
:1010CE00DA6EDF50106E1050D8A470EF08F072EF89
:1010DE0008F057EF08F0120014BE80EF08F014501D
:1010EE0006E11304D8B07EEF08F080EF08F08EEF23
:1010FE0008F013C015F014C016F0151E161E154A72
:10110E00162A15C013F016C014F092EF08F013C093
:10111E0013F014C014F01200080EB86E900EAB6EE1
:10112E00240EAC6E670EAF6E000EB06E000E016E2A
:10113E00000E026E54EC09F0000E016E000E026EEF
:10114E004FEC09F0000E016E000E026E59EC09F024
:10115E00000E5F6E1200056E05C003F003460346D7
:10116E00C2500318830B0318C26EC280C282C2B271
:10117E00C3EF08F0C5EF08F0BEEF08F0C450046EE0
:10118E00036AC3500324016E000E0420026E120087
:10119E00000E896E000E8A6E000E8B6EEF0E926E32
:1011AE009368870E946E040E0F015D6F3F0E5C6F99
:1011BE002F0E5B6F000E856EF18E12005D0E00011C
:1011CE008D6F000E8E6F000E536E000E546E5BC050
:1011DE0055F05CC056F08D0E576E000E586E2AEC10
:1011EE0008F01200000E016E9EA800EF09F002EF4B
:1011FE0009F00BEF09F0ACAA07EF09F009EF09F0BF
:10120E000BEF09F0010E016E0150120000EE60F0BE
:10121E00270EEE6AE806FDE15F6A000EF86E000129
:10122E00ADEF07F0016E9EA81FEF09F021EF09F058
:10123E001AEF09F001C0ADFF1200CFEC08F03AEC46
:10124E0009F043EC09F02FEC09F093EC08F01200D2
:10125E00000EC16E810EC06E000EC36E000EC46E07
:10126E00010EC26E1200520ED36E000ED26E800EA2
:10127E009B6E000EB56E1200000E976E000E906EF5
:10128E00000E916E1200026E025019EC09F012005F
:10129E0001C089F002C08AF0120001C08BF002C0BA
:0E12AE008CF0120001C087F002C088F0120020
:020000040020DA
:08000000FFFFFFFFFFFFFFFF00
:020000040030CA
:0E00000001285F3CFFD381FF0FC00FE00F40CF
:00000001FF
