:04000000FEEFFFF020
:020000040001F9
:10FFCA000001E8EFFFF0CB9603011A8F1A891A5144
:10FFDA00F00B01091A6F1B511F0B40091B6F1B996C
:10FFEA00F00E1B17390E02012C6FFAEFFFF0FEEF2D
:06FFFA00FFF0E5EFFFF04F
:020000040020DA
:10000000FF0FFF0FFF0FFF0FFF0FFF0FFF0FFF0F80
:10001000FF0FFF0FFF0FFF0FFF0FFF0FFF0FFF0F70
:10002000FF0FFF0FFF0FFF0FFF0FFF0FFF0FFF0F60
:10003000FF0FFF0FFF0FFF0FFF0FFF0FFF0FFF0F50
:020000040030CA
:0A000000EFFFFFFF9FFFFFFFFFFF70
:00000001FF
