:04000000FEEFFFF020
:020000040001F9
:10FEB200000183EFFFF071ECFFF0B0ECFFF063ECB8
:10FEC200FFF01200620E0001AD6F000EAF6F000E68
:10FED200B36F020EB16F000EB06F000EAC6F120066
:10FEE200000E0001606F000E616F000E636F000E66
:10FEF200646F000E656F000E666F000E676F000E76
:10FF0200686F12005CECFFF0180EBE6E310E016ECF
:10FF1200B20EE82EFED7012EFCD700D03C0EBE6EEC
:10FF2200310E016EB20EE82EFED7012EFCD700D0A4
:10FF32007E0EBE6E310E016EB20EE82EFED7012E7F
:10FF4200FCD700D0BE68310E016EB20EE82EFED78D
:10FF5200012EFCD700D085EFFFF0FEEFFFF0000E80
:10FF6200C26E000EC16E000EBE6E000EC36E000E9B
:10FF7200BF6E000EC06E070ECA6ECB68000EC66E54
:10FF8200C768C868C9680401186910690869070E5A
:10FF9200206F2869000E006F000E196F000E296F86
:10FFA200000E216F000E096F000E016F000E116F1F
:10FFB200000E0201896F000E886F000E876F000E1F
:10FFC200866F000E0401226F000E2A6F000E026F70
:10FFD200000E0A6F000E126F000E1A6F03690B6992
:10FFE20013691B69070E236F2B6904690C69146975
:0EFFF2001C690F0E246F2C69120059EFFFF0EE
:020000040020DA
:10000000FF0FFF0FFF0FFF0FFF0FFF0FFF0FFF0F80
:10001000FF0FFF0FFF0FFF0FFF0FFF0FFF0FFF0F70
:10002000FF0FFF0FFF0FFF0FFF0FFF0FFF0FFF0F60
:10003000FF0FFF0FFF0FFF0FFF0FFF0FFF0FFF0F50
:020000040030CA
:0A000000ECFFF7FF9FFFFFFFFFFF7B
:00000001FF
