:1000000042EF05F0F76A140FF66E000EF7220900B2
:10001000F55012003738392F343536583132332DF8
:1000200043303D2B20202020202020202020202075
:100030002020202020202020000020202020202000
:1000400020202020202020202020202020202000D0
:100050002566202020200000EA6A890EE96EEF5014
:100060000DE0060E016E006A002EFED7012EFBD7B2
:100070007B0E006E002EFED7EF2EF3D7120090B14C
:1000800002D08C9601D08C86959690B302D08C9835
:1000900001D08C88959890B502D08C9A01D08C8A2A
:1000A000959A90B702D08C9C01D08C8C959C0000C6
:1000B0008C809590030E006E002EFED78C9095904C
:1000C0001200916B9586000E83B6010E91139588F0
:1000D000000E83B8010E006ED890003600509113C8
:1000E000958A000E83BA010E006E00360036FC0EB3
:1000F000001600509113958C000E83BC010E006E0B
:10010000003600360036F80E00160050911391C0EC
:1001100001F0120095869588958A958C8C8495942B
:1001200000008C8095900000CCDF01C090F08C9096
:10013000959000008C80959000D000D00000C1DF29
:1001400001C08FF08C90959095969598959A959C76
:100150009039006EF00E001600508F11016EB7EF4F
:1001600000F09590959295948C929592D3D701C07A
:100170008FF001BEFBD78D5302E18C9201D08C82AF
:10018000959200008C94959400008C9095908E39F7
:100190008F6F0F0E8F178FC090F071DF8E510F0B86
:1001A0008F6F906F6CDF1200280E7C6F0C0E7D6FCE
:1001B000010E7E6F060E7F6F8C9095908C929592BB
:1001C0008C94959495969598959A959C95909592E2
:1001D00095940F0E896F40DF010E7B6F7B510308F2
:1001E00008E3030E906F4BDF050E896F35DF7B2B25
:1001F000F5D7020E906F43DF050E896F2DDF7B6B05
:100200007B5103080DE3036A7B517C0FE96E000EFE
:100210000320EA6EEFCF8EF08D6BA3DF7B2BF0D740
:100220004EEF05F08A2D01D003D0400E8B6F01D028
:100230008B6B010E895D8B278B5180098C6F8D6BC9
:100240008E6F8FDF12008851070A07E00B0A0AE061
:10025000060A10E0020A14E018D0010E896F8A6FB6
:10026000E1DF18D08D6B010E8E6F7BDF020E896F80
:10027000F3DE10D0010E896F020E8A6FD3DF0AD031
:100280008D6B100E8E6F6DDF05D0010E8D6F88C0E7
:100290008EF067DF12000900F5520CE0F6CF7BF01C
:1002A000F7CF7CF0F5CF88F0CEDF7BC0F6FF7CC0C7
:1002B000F7FFF1D712008851D8B471D0006E8C517D
:1002C000D8B46DD0002604E3810E002668E204D085
:1002D0007F0E005E64E363E089C090F08D51901B57
:1002E000898F8D8F8B518F03F4CF92F08A518E03BB
:1002F000F4CF03F0F3CF91F08F03F3509227F45033
:100300009123000E03228B518E03F3509227F45059
:100310009123000E026A0322022289518F03F350B7
:100320009127F4500322000E022289518E03F350CC
:100330000326F4500222000E016A01228B518D0324
:10034000F3509127F4500322000E022201228A5119
:100350008D03F3500326F4500222000E012289512E
:100360008D03F3500226F4500122002A01BE05D06D
:1003700091370336023601360006000E91AF0AD0DF
:10038000032A02220122015005E1025003E1035039
:1003900001E1002A90BF018E90AF019E04D0006A57
:1003A000016A026A036A12008851B608886F036AFC
:1003B00089C08CF0898FD89089338A338B3303328C
:1003C000023201320032882FF6D78CAF0BD0001EDC
:1003D000011E021E031E002AD8B4012AD8B4022A24
:1003E000D8B4032A62EF02F0D8B203D0EA6A900EC2
:1003F000E96E006A016A026A036A906B916B926B04
:10040000936B8F518E118D118C112CE0200E946FF7
:10041000D890883789378A378B379037913792371A
:1004200093378F51935D08E18E51925D05E18D51B7
:10043000915D02E18C51905D0FE38C51905F8D5185
:10044000D8A08D3D915F8E51D8A08E3D925F8F5187
:10045000D8A08F3D935FD880003601360236033630
:10046000942FD6D790C0EFFF91C0ECFF92C0ECFF65
:1004700093C0ECFF1200E950806F7F51826F19E04A
:100480007EC08BF07DC08AF07CC089F07BC088F094
:100490008F6B8E6B200E8D6F820E8C6F0CDF03C006
:1004A0007EF002C07DF001C07CF000C07BF0822FA6
:1004B000E7D77EC08BF07DC08AF07CC089F07BC01E
:1004C00088F072D703C07EF002C07DF001C07CF0DE
:1004D00000C07BF07EAF0DD08007808B7B1F7C1F20
:1004E0007D1F7E1F7B2BD8B47C2BD8B47D2BD8B43A
:1004F0007E2B3B0E876F9A0E866FCA0E856F846BBC
:100500000A0E826F7F51D8B4802BD882EA6A7B0EA4
:10051000E96E7EC08BF07DC08AF07CC089F07BC024
:1005200088F087C08FF086C08EF085C08DF084C0C3
:100530008CF05ADF015000520FE17F29825D0CE000
:1005400080510CE00F0B825D01E037E280BF35D0B7
:1005500080BD04D0200E2DD0200E801780AB0CD093
:10056000809B7F51D8A480070050806F2D0E886F2C
:100570006ADE8051006E806B7F51825D0AE100501F
:10058000806F2E0E886F5FDE8051006E200E801708
:10059000000E300E80AB0DD0809B7F51D8A4800719
:1005A0000050806F2D0E886F4EDE8051006E806B84
:1005B000300E002600C088F046DED89287C08BF04F
:1005C00086C08AF085C089F084C088F08F6B8E6BFE
:1005D0008D6B0A0E8C6F08DF03C087F002C086F0B7
:1005E00001C085F000C084F0822F8FD738EF06F06D
:1005F0000900F6CF7CF0F7CF7DF0F5CF88F023DE51
:100600007CC0F6FF7DC0F7FF7B2FF2D785EF05F0AA
:100610008E0E006E7EC001F07DC002F0036A0152B2
:1006200009E102C001F0026A080E005E015202E117
:10063000006A08D0D89001BE04D002360136000608
:10064000F9D7019E6AEF06F07CC083F08051831BCE
:1006500083AF05D0D894D8907CBFD8802FD07CC0F1
:1006600083F07FC084F07B51845F06E083AF26D0A7
:10067000D850010AD86E22D080C084F07C51845FAB
:1006800006E083AF1BD0D850010AD86E17D081C0C6
:1006900084F07D51845F06E083AF10D0D850010A0A
:1006A000D86E0CD082C084F07E51845F06E083AFA8
:1006B00005D0D850010AD86E01D0D8901200800E13
:1006C000D8B2881B8D6B8E6B84C08CF088518C1BCC
:1006D0008351D8B4DCD08B6F006E8751D8B4E0D092
:1006E0008B5FD8B481D03DE388C091F0918F89C0F1
:1006F00090F08AC08FF08E6BD890913390338F3307
:100700008E338B2FF8D78CAF03D08D81DDD08D91B8
:100710008B918D89EA6A860EE96EE9D08D998CBF3E
:100720000AD08BA113D0913390338F338E33002AAC
:10073000D8B4C5D00BD091BF0CD0D8908E378F379E
:10074000903791370006D8B4BAD0F5D78D8D6BD0DD
:100750008D9D84C08CF084AF02D0918FA9D0919FE1
:10076000A7D087C08BF087C000F083518B5F84C017
:1007700091F0918F85C090F086C08FF08E6BD890ED
:10078000913390338F338E338B2FF8D78CAF03D0C8
:100790008D839AD08D938B918D8BEA6A8A0EE96E48
:1007A000A6D08D9B8CBF0AD08BA113D091339033F0
:1007B0008F338E33002AD8B482D00BD091BF0CD0A7
:1007C000D8908E378F37903791370006D8B477D0CE
:1007D000F5D78D8F28D08D9F88C08CF088AF02D040
:1007E000918F66D0919F64D088C091F0918F89C01D
:1007F00090F08AC08FF08CAF04D0919F8D8564D02B
:100800008D958E6B8B91EA6A860EE96E70D08CBFE7
:100810001CD084C08CF08BA106D0913390338F33E1
:100820008E33002A4CE08EAF0BD08F2B09E1902B3A
:1008300007E1912B05E1913390338F33002A3FE09C
:100840008DBD86D78DBFC7D71CD0800E911B91AFB1
:1008500004D03AD088C08CF00AD084C08CF0915378
:1008600006E1905304E18F5302E1006A21D091BF69
:1008700008D0D8908E378F3790379137002EF7D722
:100880001ED08CAF02D0918F13D0919F11D087C012
:1008900000F088C091F089C090F08AC08FF008D035
:1008A00083C000F084C091F085C090F086C08FF0C6
:1008B00091C001F090C002F08FC003F034D0006A04
:1008C000016A026A036A2FD08E6B8F1F901F911FDF
:1008D0008E1F8E2B05E18F2B03E1902B01E1912BD5
:1008E0008DB115D78DB356D78DB58AD7B3D7EF5005
:1008F0008F2705E3902B03E1912BD8B48B81ED5228
:10090000EF50902703E3912BD8B48B81ED52EF5039
:10091000EFBE01D0800A9127D8B08B818DB9FED669
:100920008DBB3FD774D712008151D8B4A5D08D6F3D
:100930008551D8B4A1D08D5F05E37F0E8D27D8B047
:100940009BD006D0810E8D5FD8A096D0D8B494D01D
:100950008DC000F0016A026A036A8C6B82C08BF062
:100960008B8F83C08AF084C089F0190E8D6F8851F7
:10097000895F0DE2010E8A5F0AE28B5F08E28C5FFD
:1009800006E28C2B8B2B8A2B8851892728D0875104
:100990008A5F12E2010E8B5F0FE28C5F0DE28C2BFF
:1009A0008B2B87518A278851892719E38A2B17E1D6
:1009B0008B2B15E18C2B13D0865180098B5F0EE2B7
:1009C000010E8C5F0BE28C2B865180098B2787519F
:1009D0008A27E9E38B2BE7E18C2BE5D703808D2F6A
:1009E00001D00BD0D89089378A378B378C37D89085
:1009F0000336023601368E37BAD78EA106D0D8908C
:100A00000132023203328E3302D0000635E08EBF4F
:100A10001ED0D89089378A378B378C378851895FB9
:100A200007E2010E8A5F04E28B5F02E28C5F1AE349
:100A300087518A5F05E2010E8B5F02E28C5F12E351
:100A4000865180098B5F03E2010E8C5F0BE3032A62
:100A500009E1022A07E1012A05E1002A0DE001323D
:100A60000232033282C08DF086518D1B8DAF02D0D1
:100A7000018E06D0019E04D0006A016A026A036AF0
:100A8000EFEF07F0F86AD09E056A046AC150C00B08
:100A90000F09C16E070EB46ED4EF00F00F0E936E07
:100AA000066A076A086A010E096E070E0E6E080EC6
:100AB0000F6E090E106E116A040E126E050E136E83
:100AC000060E146E156A010E166E020E176E030ED8
:100AD000186E196A1A6A1B6A1C6A1D6A010E656F14
:100AE000666B6A6B696B686B676B6E6B6D6B6C6B5F
:100AF0006B6B726B716B706B6F6B766B756B746B12
:100B0000736B7A6B796B786B776B626B0934063633
:100B1000073608360936065202E18A9801D08A88DB
:100B20009398075202E18A9A01D08A8A939A0852CE
:100B300002E18A9C01D08A8C939C095202E18A9E30
:100B400001D08A8E939E93800A6A81B00A2A93828A
:100B50000B6A81B20B2A93840C6A81B40C2A9386A7
:100B60000D6A81B60D2A636B63510308D8A04FD27A
:100B7000646B64510308D8A048D2036A63510A0F1A
:100B8000E96E000E0320EA6EEF2C3BD2036A64513B
:100B9000060FE96E000E0320EA6EEF2C32D20D2C08
:100BA00031D0062C2FD0010E896F8A6F12EC01F024
:100BB000240EF66E000EF76E4BEC01F0010E896FFD
:100BC000020E8A6F12EC01F03A0EF66E000EF76E0E
:100BD0004BEC01F0656B6A6B696B686B676B6E6BF6
:100BE0006D6B6C6B6B6B726B716B706B6F6B766B31
:100BF000756B746B736B7A6B796B786B776B666BF9
:100C0000626B83D70D2C3CD0082C3AD0010E896F33
:100C1000020E8A6F12EC01F0036A625102EC00F0DE
:100C20007B6F886F23EC01F0010E655D040DF350BE
:100C3000036A1E0FE96E000E0320EA6EEFCF67F025
:100C4000ECCF68F0ECCF69F0ECCF6AF0020E896F60
:100C50008A6F12EC01F0890EE96E6AC07EF069C0FD
:100C60007DF068C07CF067C07BF0020E7F6F03D41C
:100C7000520EF66E000EF76E040E7B6FB9D445D798
:100C8000010E662766C089F08A6F12EC01F0036AD4
:100C9000625102EC00F07B6F886F23EC01F0640E70
:100CA000896F2CEC00F06551040DF350036A1E0FA0
:100CB000016E000E032201C07BF003C07CF0036ACA
:100CC00062510E0FE96E000E0320EA6EEF507E6B4C
:100CD0007D6F9ED47CC0EAFF7BC0E9FF00C0EFFFC0
:100CE00001C0ECFF02C0ECFF03C0ECFF0D2C08D0EC
:100CF000092C06D06E6B6D6B6C6B7F0E6B6F05D71E
:100D00006EC07EF06DC07DF06CC07CF06BC07BF07F
:100D1000826B816B806B7F0E7F6F96DC47E1655144
:100D2000040DF350036A1E0F016E000E032201C072
:100D30007BF003C07CF06551040DF350036A1E0F75
:100D4000E96E000E0320EA6EEFCF83F0ECCF84F063
:100D5000ECCF85F0ECCF86F0010E655D040DF3500D
:100D6000036A1E0FE96E000E0320EA6EEFCF87F0D4
:100D7000ECCF01F0ECCF02F0ECCF03F0D89203C03F
:100D80008AF002C089F001C088F099DC7CC0EAFFDB
:100D90007BC0E9FF00C0EFFF01C0ECFF02C0ECFF29
:100DA00003C0ECFF6E6B6D6B6C6B6B6B0B2C08D028
:100DB000092C06D0726B716B706B7F0E6F6FA5D6AE
:100DC00072C07EF071C07DF070C07CF06FC07BF0AF
:100DD000826B816B806B7F0E7F6F36DC47E16551E4
:100DE000040DF350036A1E0F016E000E032201C0B2
:100DF0007BF003C07CF06551040DF350036A1E0FB5
:100E0000E96E000E0320EA6EEFCF88F0ECCF89F098
:100E1000ECCF8AF0ECCF8BF0010E655D040DF35042
:100E2000036A1E0FE96E000E0320EA6EEFCF8CF00E
:100E3000ECCF01F0ECCF02F0ECCF03F003C08FF069
:100E400002C08EF001C08DF05BEC01F07CC0EAFFC7
:100E50007BC0E9FF00C0EFFF01C0ECFF02C0ECFF68
:100E600003C0ECFF726B716B706B6F6B0C2C08D056
:100E7000092C06D0766B756B746B7F0E736F45D63D
:100E800076C07EF075C07DF074C07CF073C07BF0DE
:100E9000826B816B806B7F0E7F6F24EC03F04FE1E0
:100EA0006551040DF350036A1E0F016E000E0322FC
:100EB00001C07BF003C07CF06551040DF350036A60
:100EC0001E0FE96E000E0320EA6EEFCF83F0ECCF29
:100ED00001F0ECCF85F0ECCF03F00150800A7E6F7B
:100EE00003C086F0010E655D040DF350036A1E0F0A
:100EF000E96E000E0320EA6EEFCF87F0ECCF01F031
:100F0000ECCF02F0ECCF03F0D8927EC084F003C0A7
:100F10008AF002C089F001C088F05FEC03F07CC069
:100F2000EAFF7BC0E9FF00C0EFFF01C0ECFF02C099
:100F3000ECFF03C0ECFF766B756B746B736B0A2C64
:100F400008D0092C06D07A6B796B786B7F0E776F9F
:100F5000DCD57AC07EF079C07DF078C07CF077C0B7
:100F60007BF0826B816B806B7F0E7F6F24EC03F0D4
:100F700046E16551040DF350036A1E0F016E000E29
:100F8000032201C07BF003C07CF0010E655D040DFF
:100F9000F350036A1E0FE96E000E0320EA6EEFCFD6
:100FA00081F0ECCF82F0ECCF83F0ECCF84F0655190
:100FB000040DF350036A1E0FE96E000E0320EA6E63
:100FC000EFCF85F0ECCF01F0ECCF02F0ECCF03F0E7
:100FD00003C088F002C087F001C086F0A5D47CC0B1
:100FE000EAFF7BC0E9FF00C0EFFF01C0ECFF02C0D9
:100FF000ECFF03C0ECFF7A6B796B786B776B010EBB
:101000006527010E6227642BB4D5632BADD57DD542
:041010007CD5030088
:020000040030CA
:0E00000004CC381E0007A1000FC00FE00F4017
:00000001FF
;PIC18F4550
;CRC=0A75  CREATED="10-jun.-20 13:40"
