:040000002EEF05F0EA
:1008000000544532303135202D204C616220646522
:10081000004D6963726F732C2041443230323200D4
:1008200044656E697365204F7274697A0041303196
:100830003137373135380000000E956E6AEC04F020
:1008400077EC05F0010E186E010EA2EC04F0010E1B
:10085000196E080E1A6E03EC05F0010E186E020EEA
:10086000A2EC04F0110E196E080E1A6E03EC05F0DE
:100870000B0E206E260E1F6E5E0EE82EFED71F2E6C
:10088000FCD7202EFAD777EC05F0010E186E010E7A
:10089000A2EC04F0200E196E080E1A6E03EC05F09F
:1008A000010E186E020EA2EC04F02D0E196E080E49
:1008B0001A6E03EC05F00B0E206E260E1F6E5E0EF8
:1008C000E82EFED71F2EFCD7202EFAD720EF04F0FB
:1008D00000EF00F0000ED5EC04F0340E186EF20EAE
:1008E000E82EFED7182EFCD7030E67EC05F00D0E90
:1008F000186EFC0EE82EFED7182EFCD7030E67EC00
:1009000005F01D0E186E910EE82EFED7182EFCD79E
:1009100000F0030E67EC05F0020E67EC05F0020E26
:1009200067EC05F0080E67EC05F0000E67EC05F0CB
:100930000C0E67EC05F0000E67EC05F0060E67EC98
:1009400005F01200196E1904D8A4A9EF04F0ABEF5A
:1009500004F0BCEF04F018507F0F1C6E1C380F0B16
:100960001A6E1C500F0B1B6E1A5067EC05F01B50D3
:1009700067EC05F0D4EF04F0020E1918D8A4C3EF09
:1009800004F0C5EF04F0D4EF04F01850BF0F1C6E54
:100990001C380F0B1A6E1C500F0B1B6E1A5067EC95
:1009A00005F01B5067EC05F01200156E15A0DBEF8B
:1009B00004F0DDEF04F0E0EF04F08388E1EF04F0F1
:1009C000839815A2E6EF04F0E8EF04F0EBEF04F0F3
:1009D000838AECEF04F0839A15A4F1EF04F0F3EFAF
:1009E00004F0F6EF04F0838CF7EF04F0839C15A677
:1009F000FCEF04F0FEEF04F001EF05F0838E02EF50
:100A000005F0839E1200000E1E6E000E1D6E19EF83
:100A100005F01D5019241B6E1E501A201C6E1BC0A1
:100A2000F6FF1CC0F7FF0800F5504BEC05F01D4A1F
:100A30001E2A1D5019241B6E1E501A201C6E1BC02E
:100A4000F6FF1CC0F7FF0800F5500009D8A42BEFF3
:100A500005F02DEF05F009EF05F01200FC0EF66E23
:100A60000A0EF76E000EF86E00EE21F010EE06F0A2
:100A70000900F5CFEEFFE550E150FAE100EE01F09C
:100A8000140EEE6AE806FDE1000EF86E080EF76E31
:100A900000011CEF04F0186E18500F0B166E185062
:100AA000F00B176E838417380F0BD5EC04F0838698
:100AB0001A0EE82EFED700D083961650D5EC04F01F
:100AC00083861A0EE82EFED700D083961200176E8A
:100AD00083941750D5EC04F083860B0E166E620ECD
:100AE000E82EFED7162EFCD700D083961200000EFB
:100AF00067EC05F0010E67EC05F012003D0A8F402F
:020B00001400DF
:020000040020DA
:08000000FFFFFFFFFFFFFFFF00
:020000040030CA
:0E000000000C1E1EFF8381FF0FC00FE00F409B
:00000001FF
