:0400000081EF00F09C
:1000080042004200420042004000420040004200DC
:1000180042004200420042004200420042004200C8
:1000280042004000400040004200420042004200BE
:1000380042004200420042004200420042004200A8
:10004800420042004200420040004000420042009C
:10005800420042004200400042004200420042008A
:100068004200420042004200420042004200420078
:10007800420042004200420040004200420042006A
:100088004200420042004200420042004200420058
:10009800420042004200420040004200400040004E
:1000A8004200420042004200420042004200420038
:1000B8004200420042004200420042004200420028
:1000C8004200420042004200420042004200420018
:1000D8004200420042004200420042004200420008
:1000E8004000420042004200400040004000400002
:0E00F8004200420042004200FF00ABEF00F069
:10010800C3B689EF00F08CEF00F0010E8DEF00F020
:10011800000EFF0A016E014601460146C350011850
:10012800F70B0118C36EAF901100C780CB9604017E
:1001380008910981C3869F8003016381D690AF909F
:10014800D68ED68CD68AA7EF00F081EF00F0040196
:10015800080E5D6F000E5E6F000E5F6F000199EF75
:0201680000F0A5
:020000040020DA
:10000000FF0FFF0FFF0FFF0FFF0FFF0FFF0FFF0F80
:10001000FF0FFF0FFF0FFF0FFF0FFF0FFF0FFF0F70
:10002000FF0FFF0FFF0FFF0FFF0FFF0FFF0FFF0F60
:10003000FF0FFF0FFF0FFF0FFF0FFF0FFF0FFF0F50
:020000040030CA
:0A000000EFFFFFFF9FFFFFFFFFFF70
:00000001FF
