:0400000081EF00F09C
:1000080040004000400040004000400040004000E8
:1000180040004000661140004000400040004000A1
:1000280040004000400040004000400040004000C8
:1000380040004000400040004000400040004000B8
:1000480040004000400040004000400040004000A8
:100058004000400040004000400040004000400098
:100068004000400040004000400040004000400088
:100078004000400040004000400040004000400078
:100088004000400040004000400040004000400068
:100098004000400040004000400040004000400058
:1000A8004000400040004000400040004000400048
:1000B8004000400040004000400040004000400038
:1000C8004000400040004000400040004000400028
:1000D8004000400040004000400040004000400018
:1000E8004000400040004000400040004000400008
:0E00F8004000400040004000FF00A6EF25F051
:10260000000D0A566F6C74616A653A202566006990
:102610006E66006E616E0000000E0501816F36C5AA
:1026200084F537C585F538C586F539C587F587BF83
:102630001EEF13F01CEF13F032EF13F0010E816F59
:1026400084C501F585C502F586C503F587C504F582
:102650008AEC25F001C584F502C585F503C586F52C
:1026600004C587F5000E0501836F000E826FC0C59B
:1026700071F5C1C572F58151D8B441EF13F043EF44
:1026800013F057EF13F08151D8A449EF13F04BEF3B
:1026900013F051EF13F0000E676F2B0E666F55EFBE
:1026A00013F0000E676F2D0E666F66C581F584C549
:1026B00001F585C502F586C503F587C504F54CEC23
:1026C00022F001040210D8A468EF13F06AEF13F0AF
:1026D0009DEF13F005018151D8B471EF13F073EF42
:1026E00013F07CEF13F081C500F67107D8A07207D4
:1026F000000E836F010E826F000E8225016E060EA2
:102700008321026E0F0E036E260E046E46EC25F03A
:102710000501FD0E7127FF0E722334C511F535C575
:1027200012F5000E136E060E146E71C515F572C506
:1027300016F537EC24F009EF18F084C501F585C5CE
:1027400002F586C503F587C504F54CEC22F001506F
:102750000210D8A4AEEF13F0B0EF13F0D0EF13F0E7
:1027600005018151D8B4B7EF13F0B9EF13F0C2EF00
:1027700013F081C500F67107D8A07207000E836FB1
:10278000010E826F000E8225016E060E8321026EFD
:10279000130E036E260E046E46EC25F088EF13F040
:1027A000000E0501886F000E896F800E8A6F3F0E44
:1027B0008B6F000E706F000E6F6F84C501F585C5BD
:1027C00002F586C503F587C504F5000E056E000EFB
:1027D000066E000E076E000E086EA3EC23F0D8B054
:1027E000F4EF13F0F6EF13F0D5EF14F003EF14F05D
:1027F00073C588F574C589F575C58AF576C58BF5F9
:1028000005016F4B702B88C50FF589C510F58AC57A
:1028100011F58BC512F5000E136E000E146E200E0E
:10282000156E410E166E6AEC1AF00FC573F510C5E1
:1028300074F511C575F512C576F505017351845D02
:10284000016E74518559026E75518659036E765129
:102850008759046E74EC24F004BE3AEF14F004506F
:102860000310021009E1020E015CD8A03AEF14F047
:102870003CEF14F0F8EF13F073C528F574C529F593
:1028800075C52AF576C52BF584C52CF585C52DF5BE
:1028900086C52EF587C52FF5CAEC21F0D8A053EFD9
:1028A00014F055EF14F0F8EF13F005018851845D32
:1028B000016E89518559026E8A518659036E8B517A
:1028C0008759046E74EC24F004BE74EF14F00450C5
:1028D0000310021007E1020E015CD8B072EF14F091
:1028E00074EF14F0BCEF14F088C584F589C585F544
:1028F0008AC586F58BC587F5D5EF14F088C501F537
:1029000089C502F58AC503F58BC504F5000E056E71
:10291000000E066E200E076E410E086E7FEC1CF056
:1029200001C588F502C589F503C58AF504C58BF58F
:1029300005016F07D8A070078851845D016E895129
:102940008559026E8A518659036E8B518759046EE0
:1029500074EC24F004BEBAEF14F00450031002101B
:1029600007E1020E015CD8B0B8EF14F0BAEF14F032
:10297000BCEF14F074EF14F084C528F585C529F573
:1029800086C52AF587C52BF588C52CF589C52DF593
:102990008AC52EF58BC52FF5CAEC21F0D8A0D3EF50
:1029A00014F0D5EF14F07EEF14F03AC569F569C55F
:1029B0006AF55EBEDEEF14F0E0EF14F0E6EF14F01F
:1029C0005DC562F55EC563F5EBEF14F0000E050121
:1029D000636F060E626F62C56DF563C56EF5050126
:1029E0006D4B6E2B660E6A19D8A4F9EF14F0FBEF4D
:1029F00014F01BEF15F070BF02EF15F000EF15F0AB
:102A00000EEF15F0000E886F000E896F800E8A6F32
:102A10003F0E8B6F000E706F000E6F6F670E69199F
:102A2000D8B415EF15F017EF15F01BEF15F06F5137
:102A30006D2770516E23000E786F000E776F84C57E
:102A400079F585C57AF586C57BF587C57CF588C59A
:102A500073F589C574F58AC575F58BC576F5ACEF48
:102A600015F079C501F57AC502F57BC503F57CC57E
:102A700004F588C505F589C506F58AC507F58BC532
:102A800008F57FEC1CF001C51AF502C51BF503C55E
:102A90001CF504C51DF564EC1FF01AC57DF51BC5BA
:102AA0007EF51CC57FF51DC580F57DC501F57EC58C
:102AB00002F57FC503F580C504F547EC21F001C59B
:102AC0006BF502C56CF579C528F57AC529F57BC586
:102AD0002AF57CC52BF57DC513F57EC514F57FC59C
:102AE00015F580C516F588C50FF589C510F58AC599
:102AF00011F58BC512F56AEC1AF00FC52CF510C54F
:102B00002DF511C52EF512C52FF523EC25F028C59E
:102B100079F529C57AF52AC57BF52BC57CF588C5DD
:102B200001F589C502F58AC503F58BC504F5000ECC
:102B3000056E000E066E200E076E410E086E7FECCD
:102B40001CF001C588F502C589F503C58AF504C5E1
:102B50008BF50501774B782B6D51775D7851800AA5
:102B60003B6E6E51800A3B58D8A0B9EF15F0BBEF11
:102B700015F031EF15F088C50FF589C510F58AC538
:102B800011F58BC512F5000E136E000E146EA00E1B
:102B9000156E400E166E6AEC1AF00FC57DF510C565
:102BA0007EF511C57FF512C580F579C528F57AC582
:102BB00029F57BC52AF57CC52BF57DC52CF57EC591
:102BC0002DF57FC52EF580C52FF5CAEC21F0D8B0C4
:102BD000ECEF15F0EEEF15F0F9EF15F0000E050132
:102BE0007D6F000E7E6F000E7F6F000E806F22EFF4
:102BF00016F079C501F57AC502F57BC503F57CC5EC
:102C000004F57DC505F57EC506F57FC507F580C5CC
:102C100008F5A3EC23F0D8A010EF16F012EF16F091
:102C200022EF16F005016BB118EF16F01AEF16F04F
:102C300022EF16F0000E7D6F000E7E6F000E7F6F8C
:102C4000000E806F84C501F585C502F586C503F5C4
:102C500087C504F57DC505F57EC506F57FC507F575
:102C600080C508F50AEC18F001C579F502C57AF5BA
:102C700003C57BF504C57CF579C528F57AC529F52A
:102C80007BC52AF57CC52BF5000E136E000E146E65
:102C9000200E156E410E166E73C50FF574C510F536
:102CA00075C511F576C512F56AEC1AF00FC52CF54D
:102CB00010C52DF511C52EF512C52FF5CAEC21F062
:102CC000D8A065EF16F067EF16F090EF16F005014B
:102CD0006F4B702B73C50FF574C510F575C511F5E5
:102CE00076C512F5000E136E000E146E200E156ED2
:102CF000410E166E6AEC1AF00FC573F510C574F527
:102D000011C575F512C576F5660E05016A19D8A4C8
:102D10008CEF16F08EEF16F090EF16F06D4B6E2BD9
:102D200073C588F574C589F575C58AF576C58BF5C3
:102D30006FC560F570C561F5000E0501686F000E86
:102D4000656F000E646F000E786F000E776F8EEF68
:102D500017F079C501F57AC502F57BC503F57CC589
:102D600004F588C505F589C506F58AC507F58BC53F
:102D700008F57FEC1CF001C51AF502C51BF503C56B
:102D80001CF504C51DF564EC1FF01AC57DF51BC5C7
:102D90007EF51CC57FF51DC580F57DC501F57EC599
:102DA00002F57FC503F580C504F547EC21F002BEAE
:102DB000E5EF16F0025007E10A0E015CD8B0E3EF30
:102DC00016F0E5EF16F0F5EF16F07DC501F57EC5BE
:102DD00002F57FC503F580C504F547EC21F001C578
:102DE0006BF502C56CF5FAEF16F0000E05016C6F7D
:102DF000090E6B6F05016851D8A401EF17F003EFBE
:102E000017F02BEF17F061BF0AEF17F008EF17F07C
:102E10002BEF17F0000E8225D96E060E8321DA6E95
:102E20002E0EDF6E824B832B7107D8A07207010E26
:102E3000686F2BEF17F0000E8225D96E060E8321E6
:102E4000DA6E300EDF6E824B832B7107D8A07207CB
:102E50006407D8A0650764516511D8A432EF17F054
:102E600034EF17F01BEF17F0000E8225D96E060E17
:102E70008321DA6E6B51300FDF6E824B832B71072B
:102E8000D8A0720779C528F57AC529F57BC52AF53A
:102E90007CC52BF57DC513F57EC514F57FC515F5ED
:102EA00080C516F588C50FF589C510F58AC511F5D9
:102EB0008BC512F56AEC1AF00FC52CF510C52DF56F
:102EC00011C52EF512C52FF523EC25F028C579F58F
:102ED00029C57AF52AC57BF52BC57CF588C501F592
:102EE00089C502F58AC503F58BC504F5000E056E8C
:102EF000000E066E200E076E410E086E7FEC1CF071
:102F000001C588F502C589F503C58AF504C58BF5A9
:102F100005016007D8A06107774B782B6D51775D6D
:102F20007851800A3B6E6E51800A3B58D8B09BEFB7
:102F300017F09DEF17F0ABEF17F083BFA9EF17F075
:102F4000835109E14B0E825DD8A0A9EF17F0ABEFDA
:102F500017F0A9EF16F0000E786F4F0E776F000E86
:102F60007725D96E060E7821DA6E000EDF6E000E20
:102F70003B6E060E3C6E82513B5E83513C5A77514C
:102F80003B24016E78513C20026E000E036E060E4B
:102F9000046E82C505F583C506F5FBEC24F005013A
:102FA0008251775D826F83517859836F8151D8A4A4
:102FB000DCEF17F0DFEF17F0010EE0EF17F0000E77
:102FC000776F786B8151D8B4E8EF17F0EAEF17F01C
:102FD000F5EF17F08207D8A08307000E8225D96E7F
:102FE000060E8321DA6E81C5DFF47751715F785167
:102FF000725B34C511F535C512F5000E8225136ECE
:10300000060E8321146E71C515F572C516F537ECE1
:1030100024F012000450800B0D6E045004240F6E37
:1030200003AE15EF18F017EF18F018EF18F00F8037
:103030000F50D8B41EEF18F020EF18F035EF18F04D
:103040000F28D8A426EF18F028EF18F030EF18F06A
:10305000000E016E000E026E000E036E000E046E76
:10306000038E000E046E3DEF18F0000E016E000E90
:10307000026E000E036E000E046E0850800B0E6E82
:103080000D500E18D8B447EF18F049EF18F04AEF7A
:1030900018F00D8C085008240E6E07AE52EF18F091
:1030A00054EF18F055EF18F00E800E50D8B45BEFC7
:1030B00018F05DEF18F072EF18F00E28D8A463EF47
:1030C00018F065EF18F06DEF18F0000E056E000EA9
:1030D000066E000E076E000E086E078E000E086E5C
:1030E0007AEF18F0000E056E000E066E000E076EE9
:1030F000000E086E0F500E5CD8B081EF18F083EF11
:1031000018F0AAEF18F00DAC88EF18F08AEF18F05D
:103110008CEF18F0800E0D1A0FC510F50EC50FF5C7
:1031200010C50EF501C510F505C501F510C505F56D
:1031300002C510F506C502F510C506F503C510F564
:1031400007C503F510C507F504C510F508C504F556
:1031500010C508F5000E106E0F500EC509F50A6A6D
:10316000095E000E0A5A0ABEBFEF18F00A5009E1C4
:103170001A0E095CD8A0BFEF18F0C1EF18F0F8EFF5
:1031800018F00150021003100410D8A4CAEF18F070
:10319000CDEF18F0010ECEEF18F0000E106E000EFD
:1031A000016E000E026E000E036E000E046E0EC560
:1031B0000FF501EF19F010A0E0EF18F0E2EF18F0B2
:1031C000E8EF18F0D89010300109106EEAEF18F00F
:1031D000D890103201A0EFEF18F0F1EF18F0F2EFF5
:1031E00018F0108E043404320332023201320F2AF6
:1031F0000E500F5CD8A0FFEF18F001EF19F0DBEFD5
:1032000018F00DBC06EF19F008EF19F048EF19F0AF
:103210000F50D8A40EEF19F010EF19F01AEF19F0B3
:10322000000E016E000E026E000E036E000E046EA4
:1032300069EF1AF0055001260650022207500322BA
:103240000850042204A027EF19F029EF19F0D5EF58
:1032500019F010A02EEF19F030EF19F036EF19F039
:10326000D89010300109106E38EF19F0D890103254
:1032700001A03DEF19F03FEF19F040EF19F0108E6B
:10328000043404320332023201320F2AD5EF19F02E
:103290000550015C06500258075003580450800A3C
:1032A000096E0850800A0958D8B059EF19F05BEF41
:1032B00019F086EF19F00150055C096E02500658AE
:1032C0000A6E035007580B6E045008580C6EFF0E20
:1032D0000924016EFF0E0A20026EFF0E0B20036E02
:1032E000FF0E0C20046E800E0D1A106C1050D8A426
:1032F0007CEF19F07EEF19F08EEF19F0010E012628
:10330000000E0222032204228EEF19F00550015E06
:103310000650025A0750035A0850045A015002102E
:1033200003100410D8A497EF19F099EF19F0CEEF1D
:1033300019F01050D8A49FEF19F0A1EF19F0CEEFBB
:1033400019F0000E016E000E026E000E036E000EEC
:10335000046E69EF1AF0D89001360236033604364F
:1033600010AEB5EF19F0B7EF19F0B8EF19F0018012
:1033700010A0BDEF19F0BFEF19F0C3EF19F0D8801E
:103380001036C5EF19F0D89010360F50D8B4CBEFE7
:1033900019F0CDEF19F0CEEF19F00F0603AED3EF11
:1033A00019F0D5EF19F0ABEF19F0000E0E6E10AE5C
:1033B000DCEF19F0DEEF19F0F6EF19F010C509F5A2
:1033C0007F0E0916D8B4E7EF19F0E9EF19F0EDEF29
:1033D00019F0010E0E6EF6EF19F001A0F2EF19F0E0
:1033E000F4EF19F0F6EF19F0E9EF19F00E50D8B438
:1033F000FCEF19F0FEEF19F029EF1AF0010E01268B
:10340000000E02220322042204A009EF1AF00BEF9F
:103410001AF029EF1AF001C509F502C50AF503C52E
:103420000BF504C50CF50C340C320B320A320932A0
:1034300009C501F50AC502F50BC503F50CC504F570
:103440000F28D8B426EF1AF028EF1AF029EF1AF057
:103450000F2A0F28D8B42FEF1AF031EF1AF039EFF6
:103460001AF00F50D8A437EF1AF039EF1AF04BEFDB
:103470001AF0000E016E000E026E000E036E000EBA
:10348000046E0F50D8A447EF1AF049EF1AF04BEF33
:103490001AF0000E0D6E0FA050EF1AF052EF1AF056
:1034A00055EF1AF0038E56EF1AF0039ED8900F30A6
:1034B000046E0DAE5EEF1AF060EF1AF061EF1AF0D5
:1034C000048E01C501F502C502F503C503F504C567
:1034D00004F512001250800B1B6E12501224216E44
:1034E00011AE75EF1AF077EF1AF078EF1AF021802D
:1034F0002150D8B47EEF1AF080EF1AF093EF1AF053
:103500002128D8A486EF1AF088EF1AF090EF1AF06D
:10351000000E0F6E000E106E000E116E000E126E79
:10352000118E9BEF1AF0000E0F6E000E106E000E43
:10353000116E000E126E1650800B1B1A16501624B8
:10354000206E15AEA6EF1AF0A8EF1AF0A9EF1AF048
:1035500020802050D8B4AFEF1AF0B1EF1AF0C4EFCA
:103560001AF02028D8A4B7EF1AF0B9EF1AF0C1EF7B
:103570001AF0000E136E000E146E000E156E000E83
:10358000166E158ECCEF1AF0000E136E000E146E30
:10359000000E156E000E166E2050D8B4D2EF1AF041
:1035A000D4EF1AF0DCEF1AF02150D8A4DAEF1AF0B9
:1035B000DCEF1AF0E6EF1AF0000E0F6E000E106E40
:1035C000000E116E000E126E7EEF1CF015500F02F1
:1035D000F3C426F5F4C427F526501C6E1D6A1E6A36
:1035E0001F6A2750226E236A246A256A145010022B
:1035F000F3C426F5F4C427F526501C26000E1D2220
:103600001E221F2227502226000E2322242225229A
:1036100013501102F3C426F5F4C427F526501C26D6
:10362000000E1D221E221F2227502226000E2322BA
:10363000242225221EC51FF51DC51EF51CC51DF51E
:103640001C6A13501002F3C426F5F4C427F5265063
:103650001C2627501D22000E1E22000E1F22145071
:103660000F02F3C426F5F4C427F526501C26275074
:103670001D22000E1E22000E1F221EC51FF51DC595
:103680001EF51CC51DF51C6A13500F02F3C426F568
:10369000F4C427F526501C2627501D22000E1E229A
:1036A000000E1F2215501002F3C426F5F4C427F5AE
:1036B0002650222627502322000E2422000E2522E7
:1036C00014501102F3C426F5F4C427F5265022261F
:1036D00027502322000E2422000E2522155011020D
:1036E000F3C426F5F4C427F52650176E2750186E3C
:1036F000196A1A6A19C51AF518C519F517C518F502
:10370000176A1750222618502322195024221A50C3
:1037100025221CC517F51DC518F51EC519F51FC5B1
:103720001AF5190E99EF1BF0D8901A321932183287
:103730001732E82E94EF1BF0175022261850232240
:10374000195024221A5025221EC51FF51DC51EF52D
:103750001CC51DF51C6A205021C517F5186A1726CF
:10376000000E1822820E1724266EFF0E1820276ED8
:10377000CFEF1BF0D89022362336243625361FAEE5
:10378000C4EF1BF0C6EF1BF0C7EF1BF02280D890F0
:103790001C361D361E361F362606D8A0270624AE38
:1037A000D4EF1BF0D6EF1BF0BAEF1BF0000E206E2B
:1037B0001FAEDDEF1BF0DFEF1BF003EF1CF0FF0E81
:1037C0001C14176EFF0E1D14186EFF0E1E14196EBA
:1037D0007F0E1F141A6E1750181019101A10D8B433
:1037E000F4EF1BF0F6EF1BF0FAEF1BF0010E206E6A
:1037F00003EF1CF022A0FFEF1BF001EF1CF003EF22
:103800001CF0F6EF1BF02050D8B409EF1CF00BEFC2
:103810001CF02FEF1CF0010E2226000E2322242282
:10382000252225A016EF1CF018EF1CF02FEF1CF03E
:1038300022C517F523C518F524C519F525C51AF5B0
:103840001A341A3219321832173217C522F518C530
:1038500023F519C524F51AC525F5264A272A27BEBA
:103860003AEF1CF0275008E12628D8A03AEF1CF0C8
:103870003CEF1CF046EF1CF0000E226E000E236E93
:10388000800E246E7F0E256E74EF1CF027BE53EF62
:103890001CF0275006E12604D8B051EF1CF053EF7E
:1038A0001CF05FEF1CF0000E226E000E236E000E67
:1038B000246E000E256E000E1B6E74EF1CF026C5E4
:1038C00021F5FF0E2216FF0E23167F0E2416000E82
:1038D000251621A06EEF1CF070EF1CF071EF1CF0AC
:1038E000248ED8902130256E1B50251222C50FF54D
:1038F00023C510F524C511F525C512F51200045095
:10390000800B116E04500424186E03AE8AEF1CF075
:103910008CEF1CF08DEF1CF018801850D8B493EF8A
:103920001CF095EF1CF0AAEF1CF01828D8A49BEF10
:103930001CF09DEF1CF0A5EF1CF0000E016E000EB8
:10394000026E000E036E000E046E038E000E046EF7
:10395000B2EF1CF0000E016E000E026E000E036E40
:10396000000E046E0850800B111A08500824196EBE
:1039700007AEBDEF1CF0BFEF1CF0C0EF1CF01980CC
:103980001950D8B4C6EF1CF0C8EF1CF0DDEF1CF0E6
:103990001928D8A4CEEF1CF0D0EF1CF0D8EF1CF003
:1039A000000E056E000E066E000E076E000E086E0D
:1039B000078E000E086EE5EF1CF0000E056E000E7F
:1039C000066E000E076E000E086E055006100710FA
:1039D0000810D8A4EEEF1CF0F0EF1CF008EF1DF07B
:1039E000000E016E000E026E000E036E000E046EDD
:1039F000800E03127F0E04121150041201C501F54E
:103A000002C502F503C503F504C504F54BEF1EF02E
:103A10001850D8A40EEF1DF010EF1DF01AEF1DF096
:103A2000000E016E000E026E000E036E000E046E9C
:103A30004BEF1EF0195018C509F50A6A095E000E11
:103A40000A5A7F0E0924126E000E0A20136E01C559
:103A50000DF502C50EF503C50FF504C510F5000EF2
:103A6000016E000E026E000E036E000E046E000E5C
:103A7000146E000E156E000E166E000E176E000E00
:103A8000196E7BEF1DF01950D8B449EF1DF04BEFC4
:103A90001DF062EF1DF0D8900D360E360F36103641
:103AA000D890013602360336043617AE5AEF1DF0B1
:103AB0005CEF1DF05DEF1DF00180D89014361536D7
:103AC0001636173605500D5C06500E5807500F5825
:103AD00008501058D8A06FEF1DF071EF1DF07AEF6D
:103AE0001DF0178C05500D5E06500E5A07500F5AE8
:103AF0000850105A192A190E196481EF1DF083EF2E
:103B00001DF043EF1DF00D500E100F101010D8B423
:103B10008CEF1DF08EEF1DF0A6EF1DF01480A6EFC8
:103B20001DF0D890013602360336043617AE9BEFEF
:103B30001DF09DEF1DF09EEF1DF00180D890143612
:103B40001536163617361206D8A0130603AEABEF9D
:103B50001DF0ADEF1DF091EF1DF0000E196E17AEC8
:103B6000B4EF1DF0B6EF1DF0DAEF1DF0FF0E1414E8
:103B7000096EFF0E15140A6EFF0E16140B6E7F0EE3
:103B800017140C6E09500A100B100C10D8B4CBEFA0
:103B90001DF0CDEF1DF0D1EF1DF0010E196EDAEF23
:103BA0001DF001A0D6EF1DF0D8EF1DF0DAEF1DF0EB
:103BB000CDEF1DF01950D8B4E0EF1DF0E2EF1DF08D
:103BC00006EF1EF0010E0126000E0222032204223F
:103BD00004A0EDEF1DF0EFEF1DF006EF1EF001C5A4
:103BE00009F502C50AF503C50BF504C50CF50C343F
:103BF0000C320B320A32093209C501F50AC502F549
:103C00000BC503F50CC504F5124A132A13BE11EFB8
:103C10001EF0135008E11228D8A011EF1EF013EF88
:103C20001EF01EEF1EF0000E136E1268000E016EE5
:103C3000000E026E000E036E000E046E13BE2BEF1C
:103C40001EF0135006E11204D8B029EF1EF02BEF3E
:103C50001EF039EF1EF0000E136E000E126E000EF5
:103C6000016E000E026E000E036E000E046E000E5A
:103C7000116E12C518F518A040EF1EF042EF1EF0AD
:103C800045EF1EF0038E46EF1EF0039ED8901830CD
:103C9000046EFCEF1CF012008EC5D9F48FC5DAF467
:103CA000DEC4F6F4DDC4F7F4000EF86E0800F5503B
:103CB000250AD8A45EEF1EF060EF1EF04DEF1FF056
:103CC0008EC5D9F48FC5DAF4DE2A000EDD22000E8F
:103CD0000501C16F000EC06FC0C5C2F55D685E68AA
:103CE0008EC5D9F48FC5DAF4DEC448F5DDC449F5D4
:103CF00048C5F6F449C5F7F4000EF86E0800F5C49F
:103D000047F58FEF1EF0484A492AA8EF1EF06C0EC7
:103D1000476EA8EF1EF0000E476EA8EF1EF047504A
:103D20003D6E3E6A3E50000AD8B499EF1EF08BEF0C
:103D30001EF03D504C0AD8B483EF1EF02A0AD8B4C6
:103D400087EF1EF00A0AD8B483EF1EF08BEF1EF047
:103D500048C5F6F449C5F7F4000EF86E0800F550B2
:103D6000660AD8A4B6EF1EF0B8EF1EF044EF1FF0BD
:103D7000EEEF1EF090C5D9F491C5DAF4DFC43DF53D
:103D8000040EDE26DFC43EF5000EDD223DC5D9F46B
:103D90003EC5DAF4DEC43FF5DEC440F5DEC441F5CD
:103DA000DEC442F503EF1FF090C5D9F491C5DAF4F3
:103DB000DFC43DF5040EDE26DFC43EF5000EDD2235
:103DC0003DC5D9F43EC5DAF4DEC43FF5DEC440F5A6
:103DD000DEC441F5DEC442F503EF1FF047503D6EEF
:103DE0003E6A3E50000AD8B4F8EF1EF003EF1FF011
:103DF0003D504C0AD8B4D4EF1EF0200AD8B4BAEF24
:103E00001EF003EF1FF0010E48243D6E000E492006
:103E10003E6E8EC5D9F48FC5DAF43DC5DEF43EC5DD
:103E2000DDF42CEF1FF08CC534F58DC535F53FC59D
:103E300036F540C537F541C538F542C539F548C5B1
:103E4000F6F449C5F7F4000EF86E0800F5C43AF52B
:103E50000CEC13F063EF1FF048C5F6F449C5F7F416
:103E6000000EF86E0800F5503D6E3E6A3E50000AA6
:103E7000D8B43DEF1FF044EF1FF03D50660AD8B4B0
:103E800013EF1FF044EF1FF08EC5D9F48FC5DAF49D
:103E9000DE2A000EDD2263EF1FF08EC5D9F48FC538
:103EA000DAF4DEC4F6F4DDC4F7F4000EF86E0800B0
:103EB000F550016E026A8CC503F58DC504F53EEC24
:103EC00023F044EF1FF01200B8C52AF5B9C52BF551
:103ED000BAC52CF5BBC52DF51AC52AF51BC52BF5A2
:103EE0001CC52CF51DC52DF5810E1E6EFF0E1F6E17
:103EF0002AC520F52BC521F52CC522F52DC523F5A6
:103F0000180E88EF1FF0D89023322232213220324F
:103F1000E82E83EF1FF020501E24286E000E1F2075
:103F2000296E29BE9DEF1FF0295009E1170E285C6C
:103F3000D8A09DEF1FF09FEF1FF0A9EF1FF01AC54B
:103F40001AF51BC51BF51CC51CF51DC51DF56CEF31
:103F500020F029BEAEEF1FF0B0EF1FF020EF20F0F1
:103F600028C51EF5FF0E1F6EFF0E206E7F0E216E00
:103F7000000E226E1E66BFEF1FF0C7EF1FF0223447
:103F80002232213220321F321E2EBAEF1FF01FC5FF
:103F900024F520C525F521C526F522C527F5245091
:103FA0002A141E6E25502B141F6E26502C14206EC2
:103FB00027502D14216E1E501F1020102110D8A440
:103FC000E4EF1FF0E6EF1FF0E8EF1FF09FEF1FF0A8
:103FD0002AC51EF52BC51FF52CC520F52DC521F5CD
:103FE000200EF8EF1FF0D890213220321F321E32FF
:103FF000E82EF3EF1FF01E501F1020102110D8B430
:1040000004EF20F006EF20F00EEF20F024502A26D7
:1040100025502B2226502C2227502D22241C1E6E88
:10402000251C1F6E261C206E271C216E1E502A1672
:104030001F502B1620502C1621502D1664EF20F007
:104040002AC51EF52BC51FF52CC520F52DC521F55C
:10405000200E30EF20F0D890213220321F321E3255
:10406000E82E2BEF20F01E501F1020102110D8A496
:104070003CEF20F03EEF20F048EF20F0000E2A6EDB
:10408000000E2B6E000E2C6E000E2D6E64EF20F0D5
:10409000D8902A341E6E2B341F6E2C34206E2D3493
:1040A000216E1E501F1020102110D8B45AEF20F09E
:1040B0005CEF20F064EF20F0000E2A6E000E2B6EF5
:1040C000800E2C6EBF0E2D6E2AC51AF52BC51BF562
:1040D0002CC51CF52DC51DF51200096E0950D8B46C
:1040E00074EF20F076EF20F098EF20F004BE7DEF23
:1040F00020F07BEF20F098EF20F001C505F502C518
:1041000006F503C507F504C508F5051E061E071EBE
:10411000081E052A000E06220722082205C50BF5F7
:1041200006C50CF507C50DF508C50EF5A0EF20F086
:1041300001C50BF502C50CF503C50DF504C50EF55B
:104140000150021003100410D8A4A9EF20F0ABEF27
:1041500020F0B5EF20F0000E016E000E026E000E92
:10416000036E000E046E46EF21F0960E0A6EBFEF4E
:1041700020F00A2AD8900E320D320C320B32000E8B
:104180000B14056E000E0C14066E000E0D14076E57
:10419000FE0E0E14086E0550061007100810D8A465
:1041A000D4EF20F0D6EF20F0B9EF20F0E4EF20F0CC
:1041B0000A2A010E0B26000E0C220D220E22D89088
:1041C0000E320D320C320B32000E0B14056E000E47
:1041D0000C14066E000E0D14076EFF0E0E14086E02
:1041E0000550061007100810D8A4F9EF20F0FBEFD7
:1041F00020F0D8EF20F003EF21F00A06D8900B361C
:104200000C360D360E360DBE08EF21F00AEF21F008
:1042100012EF21F0020E0A6010EF21F012EF21F0F0
:10422000FDEF20F00AB017EF21F019EF21F01AEF9F
:1042300021F00D9ED8900A320AC505F5066A076A74
:10424000086A05C508F5076A066A056A05500B1273
:1042500006500C1207500D1208500E120950D8B417
:1042600034EF21F036EF21F03EEF21F004BE3DEFB8
:1042700021F03BEF21F03EEF21F00E8E0BC501F552
:104280000CC502F50DC503F50EC504F51200033487
:1042900004340A6E0A50D8A450EF21F052EF21F0F6
:1042A0005CEF21F0000E016E000E026E000E036E38
:1042B000000E046EC9EF21F001C505F502C506F533
:1042C00003C507F504C508F5200E6CEF21F0D89062
:1042D0000832073206320532E82E67EF21F005502A
:1042E000096E038EFF0E0116FF0E0216FF0E031657
:1042F000000E0416960E0A5E0ABE83EF21F081EFCF
:1043000021F099EF21F00A50800A970FD8B08BEF77
:1043100021F08DEF21F08FEF21F052EF21F0D890B6
:1043200004320332023201320A3E8FEF21F0B1EF44
:1043300021F01F0E0A649FEF21F0A1EF21F0A9EFF9
:1043400021F052EF21F0D8900136023603360436C0
:104350000A060A50D8A4AFEF21F0B1EF21F0A3EF85
:1043600021F00950D8B4B7EF21F0B9EF21F0C1EF37
:1043700021F0041E031E021E016C000E0222032205
:10438000042201C501F502C502F503C503F504C504
:1043900004F51200000E2814306E000E2914316E40
:1043A000800E2A14326E7F0E2B14336E3050311073
:1043B00032103310D8A4DFEF21F0E1EF21F0E9EF64
:1043C00021F0000E286E000E296E000E2A6E000EDF
:1043D0002B6E000E2C14306E000E2D14316E800EDC
:1043E0002E14326E7F0E2F14336E30503110321077
:1043F0003310D8A4FEEF21F000EF22F008EF22F0F6
:10440000000E2C6E000E2D6E000E2E6E000E2F6E06
:104410002BAE0DEF22F00FEF22F018EF22F0286CF8
:10442000291ED8B0292A2A1ED8B02A2A800E2B5637
:104430002FAE1DEF22F01FEF22F028EF22F02C6CA0
:104440002D1ED8B02D2A2E1ED8B02E2A800E2F5603
:10445000000E281A000E291A000E2A1A800E2B1A96
:10446000000E2C1A000E2D1A000E2E1A800E2F1A76
:104470002C50285C2D5029582E502A582F502B583C
:10448000D8B045EF22F047EF22F04AEF22F0D89063
:104490004BEF22F0D8801200BCC50BF5BDC50CF562
:1044A000BEC50DF5BFC50EF501C50BF502C50CF572
:1044B00003C50DF504C50EF50BC505F50CC506F5D0
:1044C0000DC507F50EC508F5180E6CEF22F0D89053
:1044D0000832073206320532E82E67EF22F0055027
:1044E000096E0A6A09500A10D8A479EF22F07BEF0E
:1044F00022F09BEF22F0D8900B34056E0C34066E40
:104500000D34076E0E34086E0550061007100810A3
:10451000D8A48DEF22F08FEF22F095EF22F0000E5D
:10452000026E020E016ECAEF22F0000E026E030E42
:10453000016ECAEF22F009280A10D8A4A2EF22F0D7
:10454000A4EF22F0C6EF22F00BC505F50CC506F569
:104550000DC507F50EC508F5090ED89005360636C7
:1045600007360836E82EADEF22F00550061007108A
:104570000810D8B4BEEF22F0C1EF22F0010EC2EF56
:1045800022F0000E016E026ACAEF22F0000E026EE7
:06459000040E016E120092
:10459800F6C459F5F7C45AF5F8C45BF5F5C45CF5EB
:1045A800EBC3C0F40301EB51016E026A036A046AAB
:1045B800010E6DEC20F001C50FF502C510F503C51D
:1045C80011F504C512F5940E136E300E146E530EC9
:1045D800156E3C0E166E6AEC1AF00FC5B2F510C5D2
:1045E800B3F511C5B4F512C5B5F5A00E0501986F60
:1045F800050E996F010E9A6F260E9B6FB2C59CF53A
:10460800B3C59DF5B4C59EF5B5C59FF5D2EC24F0AC
:104618000201AB8B000E0501B76F000EB66FA00E3E
:10462800B625D96E050EB721DA6EDF500201A36FE9
:10463800C80E00D0E82EFDD70501B64BB72BB7BF83
:104648002FEF23F0B75109E1120EB65DD8A02FEF76
:1046580023F031EF23F013EF23F00201AB9BB08B73
:10466800AF945CC5F5F45BC5F8F45AC5F7F459C5C1
:10467800F6F4110003500410D8B445EF23F047EFC7
:1046880023F050EF23F003500410D8A44EEF23F08A
:1046980050EF23F055EF23F00150BEEC25F0A2EFC8
:1046A80023F020EE09F00350D9260450DA22DE5018
:1046B800DE10D8B462EF23F064EF23F07FEF23F02D
:1046C80020EE09F00350D9260450DA2210EE03F048
:1046D8000350E1260450E222DE50E65CE650800AF0
:1046E800096EDE50800A0958D8B07DEF23F07FEFBD
:1046F80023F0A2EF23F020EE03F00350D926045054
:10470800DA22DEC405F5DDC406F503C5D9F404C50F
:10471800DAF4DEC407F5DDC408F505500724D96EC0
:1047280006500820DA6E01C5DFF420EE03F00350CE
:10473800D9260450DA22DE2A000EDD221200000EED
:104748000114096E000E02140A6E800E03140B6E1B
:104758007F0E04140C6E09500A100B100C10D8A40C
:10476800B8EF23F0BAEF23F0C2EF23F0000E016E8A
:10477800000E026E000E036E000E046E000E05148D
:10478800096E000E06140A6E800E07140B6E7F0E5B
:1047980008140C6E09500A100B100C10D8A4D7EF8F
:1047A80023F0D9EF23F0E1EF23F0000E056E000EA1
:1047B800066E000E076E000E086E055001180FE118
:1047C800065002180CE10750031809E108500418B4
:1047D800D8B4F1EF23F0F3EF23F0F6EF23F0D890FD
:1047E800F7EF23F0D8801200C68004010081000E84
:1047F800C86E000E106FCB90CB82000E286F000E93
:104808000301EC6FF00EF8170F0EF817F389AF9449
:104818009F846385F30EF317000EF96F000EEF6F98
:10482800EE69000EF26F000EF16FF38FF38DF697BD
:10483800F38102017251C70B2809726F7251F80B8C
:104848000109726F200E296FF00EAB17000EAF6FC3
:10485800670EAE6FAB8FAC8FD68ED69CD69A33EFE1
:1048680024F081EF00F016BE3CEF24F03EEF24F078
:1048780044EF24F015C51AF516C51BF548EF24F0CA
:10488800000E1B6E000E1A6E000E196E000E186ECA
:104898005AEF24F0000E026E200E016E11C503F5CA
:1048A80012C504F53EEC23F0184A192A1A50185C70
:1048B8001950800A176E1B50800A1758D8A067EF46
:1048C80024F069EF24F04EEF24F013C50AF514C55F
:1048D8000BF511C50CF512C50DF568EC25F01200A5
:1048E80004BE83EF24F004500310021006E1010413
:1048F800D8B081EF24F083EF24F09EEF24F001C5B7
:1049080005F502C506F503C507F504C508F5051E36
:10491800061E071E081E052A000E06220722082268
:1049280005C501F506C502F507C503F508C504F573
:10493800A6EF24F001C501F502C502F503C503F58C
:1049480004C504F5120094C54AF595C54BF5BCEFAE
:1049580024F092C58CF593C58DF54A0E05018E6F2E
:10496800050E8F6F96C590F597C591F54CEC1EF026
:104978004AC5F6F44BC5F7F4000EF86E0800F5507A
:104988000009D8A4CAEF24F0CCEF24F0ADEF24F04E
:10499800000E0501936F000E926F12009C0E4C6E74
:1049A800050E4D6E98C54EF599C54FF5000E526E21
:1049B800000E516E000E586E000E576E4E0E050119
:1049C800926F050E936F9AC594F59BC595F54C0E9D
:1049D800966F050E976FA7EC24F0515005019825A6
:1049E800D96E52509921DA6E000EDF6E120003C59F
:1049F80009F504C50AF501C507F502C508F515EF5F
:104A080025F009C5D9F40AC5DAF4DF500B6E094A56
:104A18000A2A07C5D9F408C5DAF40BC5DFF4074A32
:104A2800082A0506D8A00606052806E10628D8A4FF
:104A380020EF25F022EF25F005EF25F01200000EFB
:104A48002C1A000E2D1A000E2E1A800E2F1A28C5A9
:104A580001F529C502F52AC503F52BC504F52CC5B2
:104A680005F52DC506F52EC507F52FC508F50AEC81
:104A780018F001C528F502C529F503C52AF504C5AE
:104A88002BF5120003C505F504C506F501C507F5A4
:104A980002C508F505C5F6F406C5F7F4054A062A61
:104AA800000EF86E07C5D9F408C5DAF4074A082AD3
:104AB8000800F5C4DFF4DF50D8A465EF25F067EFF0
:104AC80025F04EEF25F01200000E106E000E0F6E4E
:104AD80079EF25F00EC501F5026A0CC503F50DC581
:104AE80004F53EEC23F00F4A102A0F500A24D96E21
:104AF80010500B20DA6EDF500E6E0E50D8A487EFE0
:104B080025F089EF25F06EEF25F012000150021014
:104B180003100410D8B493EF25F095EF25F09DEF1E
:104B280025F0000E011A000E021A000E031A800E5C
:104B3800041A01C501F502C502F503C503F504C54C
:104B480004F5120001EE00F2500EEE6AE806FDE1EF
:104B580001EEB8F10B0EEE6AE806FDE15E6A5D6AE9
:104B68000401080E5D6F000E5E6F000E5F6F00019E
:064B7800F8EF23F012002B
:020000040020DA
:10000000FF0FFF0FFF0FFF0FFF0FFF0FFF0FFF0F80
:10001000FF0FFF0FFF0FFF0FFF0FFF0FFF0FFF0F70
:10002000FF0FFF0FFF0FFF0FFF0FFF0FFF0FFF0F60
:10003000FF0FFF0FFF0FFF0FFF0FFF0FFF0FFF0F50
:020000040030CA
:0A000000EFFFFFFF9FFFFFFFFFFF70
:00000001FF
